{
  "abi": [
    {
      "type": "constructor",
      "inputs": [
        {
          "name": "_owner",
          "type": "address",
          "internalType": "address"
        },
        {
          "name": "_namesContract",
          "type": "address",
          "internalType": "address"
        }
      ],
      "stateMutability": "nonpayable"
    },
    {
      "type": "function",
      "name": "getPlasaView",
      "inputs": [],
      "outputs": [
        {
          "name": "",
          "type": "tuple",
          "internalType": "struct IPlasaView.PlasaView",
          "components": [
            {
              "name": "data",
              "type": "tuple",
              "internalType": "struct IPlasaView.PlasaData",
              "components": [
                {
                  "name": "contractAddress",
                  "type": "address",
                  "internalType": "address"
                },
                {
                  "name": "namesContract",
                  "type": "address",
                  "internalType": "address"
                }
              ]
            },
            {
              "name": "user",
              "type": "tuple",
              "internalType": "struct IPlasaView.PlasaUser",
              "components": [
                {
                  "name": "isRegistered",
                  "type": "bool",
                  "internalType": "bool"
                },
                {
                  "name": "username",
                  "type": "string",
                  "internalType": "string"
                }
              ]
            }
          ]
        }
      ],
      "stateMutability": "view"
    },
    {
      "type": "function",
      "name": "getUsername",
      "inputs": [
        {
          "name": "user",
          "type": "address",
          "internalType": "address"
        }
      ],
      "outputs": [
        {
          "name": "",
          "type": "string",
          "internalType": "string"
        }
      ],
      "stateMutability": "view"
    },
    {
      "type": "function",
      "name": "getUsernameData",
      "inputs": [
        {
          "name": "user",
          "type": "address",
          "internalType": "address"
        }
      ],
      "outputs": [
        {
          "name": "",
          "type": "tuple",
          "internalType": "struct IPlasa.UsernameData",
          "components": [
            {
              "name": "user",
              "type": "address",
              "internalType": "address"
            },
            {
              "name": "name",
              "type": "string",
              "internalType": "string"
            }
          ]
        }
      ],
      "stateMutability": "view"
    },
    {
      "type": "function",
      "name": "getUsernames",
      "inputs": [
        {
          "name": "users",
          "type": "address[]",
          "internalType": "address[]"
        }
      ],
      "outputs": [
        {
          "name": "",
          "type": "string[]",
          "internalType": "string[]"
        }
      ],
      "stateMutability": "view"
    },
    {
      "type": "function",
      "name": "getUsernamesData",
      "inputs": [
        {
          "name": "users",
          "type": "address[]",
          "internalType": "address[]"
        }
      ],
      "outputs": [
        {
          "name": "",
          "type": "tuple[]",
          "internalType": "struct IPlasa.UsernameData[]",
          "components": [
            {
              "name": "user",
              "type": "address",
              "internalType": "address"
            },
            {
              "name": "name",
              "type": "string",
              "internalType": "string"
            }
          ]
        }
      ],
      "stateMutability": "view"
    },
    {
      "type": "function",
      "name": "isRegistered",
      "inputs": [
        {
          "name": "user",
          "type": "address",
          "internalType": "address"
        }
      ],
      "outputs": [
        {
          "name": "",
          "type": "bool",
          "internalType": "bool"
        }
      ],
      "stateMutability": "view"
    },
    {
      "type": "function",
      "name": "names",
      "inputs": [],
      "outputs": [
        {
          "name": "",
          "type": "address",
          "internalType": "contract INames"
        }
      ],
      "stateMutability": "view"
    },
    {
      "type": "function",
      "name": "owner",
      "inputs": [],
      "outputs": [
        {
          "name": "",
          "type": "address",
          "internalType": "address"
        }
      ],
      "stateMutability": "view"
    },
    {
      "type": "function",
      "name": "renounceOwnership",
      "inputs": [],
      "outputs": [],
      "stateMutability": "nonpayable"
    },
    {
      "type": "function",
      "name": "setNamesContract",
      "inputs": [
        {
          "name": "_namesContract",
          "type": "address",
          "internalType": "address"
        }
      ],
      "outputs": [],
      "stateMutability": "nonpayable"
    },
    {
      "type": "function",
      "name": "transferOwnership",
      "inputs": [
        {
          "name": "newOwner",
          "type": "address",
          "internalType": "address"
        }
      ],
      "outputs": [],
      "stateMutability": "nonpayable"
    },
    {
      "type": "event",
      "name": "OwnershipTransferred",
      "inputs": [
        {
          "name": "previousOwner",
          "type": "address",
          "indexed": true,
          "internalType": "address"
        },
        {
          "name": "newOwner",
          "type": "address",
          "indexed": true,
          "internalType": "address"
        }
      ],
      "anonymous": false
    },
    {
      "type": "error",
      "name": "OwnableInvalidOwner",
      "inputs": [
        {
          "name": "owner",
          "type": "address",
          "internalType": "address"
        }
      ]
    },
    {
      "type": "error",
      "name": "OwnableUnauthorizedAccount",
      "inputs": [
        {
          "name": "account",
          "type": "address",
          "internalType": "address"
        }
      ]
    }
  ],
  "bytecode": {
    "object": "0x608060405234801561001057600080fd5b50604051610b3a380380610b3a83398101604081905261002f916100fa565b816001600160a01b03811661005e57604051631e4fbdf760e01b81526000600482015260240160405180910390fd5b6100678161008e565b50600180546001600160a01b0319166001600160a01b03929092169190911790555061012d565b600080546001600160a01b038381166001600160a01b0319831681178455604051919092169283917f8be0079c531659141344cd1fd0a4f28419497f9722a3daafe3b4186f6b6457e09190a35050565b80516001600160a01b03811681146100f557600080fd5b919050565b6000806040838503121561010d57600080fd5b610116836100de565b9150610124602084016100de565b90509250929050565b6109fe8061013c6000396000f3fe608060405234801561001057600080fd5b50600436106100a95760003560e01c80638da5cb5b116100715780638da5cb5b1461013b578063c3c5a5471461014c578063ce43c0321461016f578063e0a78bf61461018f578063f2fde38b146101a4578063f5ab196e146101b757600080fd5b8063056da048146100ae5780630c3d8e54146100de57806349d89876146100f3578063715018a614610113578063801d79431461011b575b600080fd5b6001546100c1906001600160a01b031681565b6040516001600160a01b0390911681526020015b60405180910390f35b6100f16100ec36600461062e565b6101d7565b005b61010661010136600461062e565b610201565b6040516100d591906106cf565b6100f1610241565b61012e610129366004610729565b610255565b6040516100d591906107dd565b6000546001600160a01b03166100c1565b61015f61015a36600461062e565b610316565b60405190151581526020016100d5565b61018261017d36600461062e565b61038f565b6040516100d59190610842565b610197610408565b6040516100d59190610855565b6100f16101b236600461062e565b610465565b6101ca6101c5366004610729565b6104a8565b6040516100d591906108aa565b6101df61054f565b600180546001600160a01b0319166001600160a01b0392909216919091179055565b6040805180820190915260008152606060208201526040518060400160405280836001600160a01b031681526020016102398461038f565b905292915050565b61024961054f565b610253600061057c565b565b60606000825167ffffffffffffffff811115610273576102736106e2565b6040519080825280602002602001820160405280156102b957816020015b6040805180820190915260008152606060208201528152602001906001900390816102915790505b50905060005b835181101561030f576102ea8482815181106102dd576102dd610903565b6020026020010151610201565b8282815181106102fc576102fc610903565b60209081029190910101526001016102bf565b5092915050565b6001546040516370a0823160e01b81526001600160a01b03838116600483015260009283929116906370a0823190602401602060405180830381865afa158015610364573d6000803e3d6000fd5b505050506040513d601f19601f820116820180604052508101906103889190610919565b1192915050565b600154604051630ec9a2bb60e41b81526001600160a01b038381166004830152606092169063ec9a2bb090602401600060405180830381865afa1580156103da573d6000803e3d6000fd5b505050506040513d6000823e601f3d908101601f191682016040526104029190810190610932565b92915050565b6104106105cc565b60408051608081018252308183019081526001546001600160a01b03166060830152815281518083019092529060208201908061044c33610316565b1515815260200161045c3361038f565b90529052919050565b61046d61054f565b6001600160a01b03811661049c57604051631e4fbdf760e01b8152600060048201526024015b60405180910390fd5b6104a58161057c565b50565b60606000825167ffffffffffffffff8111156104c6576104c66106e2565b6040519080825280602002602001820160405280156104f957816020015b60608152602001906001900390816104e45790505b50905060005b835181101561030f5761052a84828151811061051d5761051d610903565b602002602001015161038f565b82828151811061053c5761053c610903565b60209081029190910101526001016104ff565b6000546001600160a01b031633146102535760405163118cdaa760e01b8152336004820152602401610493565b600080546001600160a01b038381166001600160a01b0319831681178455604051919092169283917f8be0079c531659141344cd1fd0a4f28419497f9722a3daafe3b4186f6b6457e09190a35050565b6040805160808101825260009181018281526060820192909252908190815260200161060d6040518060400160405280600015158152602001606081525090565b905290565b80356001600160a01b038116811461062957600080fd5b919050565b60006020828403121561064057600080fd5b61064982610612565b9392505050565b60005b8381101561066b578181015183820152602001610653565b50506000910152565b6000815180845261068c816020860160208601610650565b601f01601f19169290920160200192915050565b60018060a01b03815116825260006020820151604060208501526106c76040850182610674565b949350505050565b60208152600061064960208301846106a0565b634e487b7160e01b600052604160045260246000fd5b604051601f8201601f1916810167ffffffffffffffff81118282101715610721576107216106e2565b604052919050565b60006020828403121561073b57600080fd5b813567ffffffffffffffff81111561075257600080fd5b8201601f8101841361076357600080fd5b803567ffffffffffffffff81111561077d5761077d6106e2565b8060051b61078d602082016106f8565b918252602081840181019290810190878411156107a957600080fd5b6020850194505b838510156107d2576107c185610612565b8252602094850194909101906107b0565b979650505050505050565b6000602082016020835280845180835260408501915060408160051b86010192506020860160005b8281101561083657603f198786030184526108218583516106a0565b94506020938401939190910190600101610805565b50929695505050505050565b6020815260006106496020830184610674565b6020808252825180516001600160a01b03908116848401529082015116604080840191909152838201516060808501528051151560808501529091015160a08301919091526000906106c760c0840182610674565b6000602082016020835280845180835260408501915060408160051b86010192506020860160005b8281101561083657603f198786030184526108ee858351610674565b945060209384019391909101906001016108d2565b634e487b7160e01b600052603260045260246000fd5b60006020828403121561092b57600080fd5b5051919050565b60006020828403121561094457600080fd5b815167ffffffffffffffff81111561095b57600080fd5b8201601f8101841361096c57600080fd5b805167ffffffffffffffff811115610986576109866106e2565b610999601f8201601f19166020016106f8565b8181528560208385010111156109ae57600080fd5b6109bf826020830160208601610650565b9594505050505056fea2646970667358221220a1ee1377c99e5731e37d82314a19feaa097936ce73cfc4c8777d8b5b9eee3c3564736f6c634300081a0033",
    "linkReferences": {}
  },
  "methodIdentifiers": {
    "getPlasaView()": "e0a78bf6",
    "getUsername(address)": "ce43c032",
    "getUsernameData(address)": "49d89876",
    "getUsernames(address[])": "f5ab196e",
    "getUsernamesData(address[])": "801d7943",
    "isRegistered(address)": "c3c5a547",
    "names()": "056da048",
    "owner()": "8da5cb5b",
    "renounceOwnership()": "715018a6",
    "setNamesContract(address)": "0c3d8e54",
    "transferOwnership(address)": "f2fde38b"
  },
  "id": 50
}